02RETORNO01COBRANCA       00000000000004551915ASSOCIACAO PAULISTA DE CIRURGI237BRADESCO       0403200160000001467                                                                                                                                                                                                                                                                          040320         000001
102473318220001190000009000910152974148081                           0000001480812          00000000000000090604032087236     0000000000290000001P301019000000000238923704151  000000000020800000000000000000000000000000000000000000000000000000000000000000000000000238900000000000000000000000000   040320                                                                                             000002
102473318220001190000009000910152974521125                           0000005211253          00000000000000090604032087236     0000000000290000001P280120000000000238923704151  000000000020800000000000000000000000000000000000000000000000000000000000000000000000000238900000000000000000000000000   040320                                                                                             000003
102473318220001190000009000910152974621015                           0000006210150          00000000000000090604032087236     0000000000290000001P280220000000000238923704151  000000000020800000000000000000000000000000000000000000000000000000000000000000000000000238900000000000000000000000000   040320                                                                                             000004
102473318220001190000009000910152974151701                           0000001517010          00000000000000090604032087236     0000000000290000001P301019000000000238923704151  000000000020800000000000000000000000000000000000000000000000000000000000000000000000000238900000000000000000000000000   040320                                                                                             000005
10247331822000119000000900091015297497