02RETORNO01COBRANCA       00000000000004551915ASSOCIACAO PAULISTA DE CIRURGI237BRADESCO       0603200160000001467                                                                                                                                                                                                                                                                          060320         000001
102473318220001190000009000910152974148081                           0000001480812          00000000000000090606032087236     0000000000290000001P301019000000000238923704151  000000000020800000000000000000000000000000000000000000000000000000000000000000000000000238900000000000000000000000000   060320                                                                                             000002
102473318220001190000009000910152974606476                           0000006064766          00000000000000090606032087236     0000000000290000001P280220000000000238923704151  000000000020800000000000000000000000000000000000000000000000000000000000000000000000000238900000000000000000000000000   060320                                                                                             000003
102473318220001190000009000910152974533843                           0000005338438          00000000000000090606032087236     0000000000290000001P280120000000000023823704151  000000000020800000000000000000000000000000000000000000000000000000000000000000000000000023800000000000000000000000000   060320                                                                                             000004
102473318220001190000009000910152974618444                           0000006184446          00000000000000090606032087236     0000000000290000001P280220000000000238923704151  000000000020800000000000000000000000000000000000000000000000000000000000000000000000000238900000000000000000000000000   060320                                                                                             000005
102473318220001190000009000910152974519815                           0000005198157          00000000000000090606032087236     0000000000290000001P280120000000000238923704151  000000000020800000000000000000000000000000000000000000000000000000000000000000000000000238900000000000000000000000000   060320                                                                                             000006
102473318220001190000009000910152974154376                           0000001543760          00000000000000090606032087236     0000000000290000001P301019000000000238923704151  000000000020800000000000000000000000000000000000000000000000000000000000000000000000000238900000000000000000000000000   060320                                                                                             000007
102473318220001190000009000910152974183760                           0000001837606          00000000000000090606032087236     0000000000290000001P281119000000000238923704151  000000000020800000000000000000000000000000000000000000000000000000000000000000000000000238900000000000000000000000000   060320                                                                                             000008
102473318220001190000009000910152974407845                           0000004078456          00000000000000090606032087236     0000000000290000001P231219000000000238923704151  000000000020800000000000000000000000000000000000000000000000000000000000000000000000000238900000000000000000000000000   060320                                                                                             000009
102473318220001190000009000910152974409134                           0000004091341          00000000000000090606032087236     0000000000290000001P231219000000000238923704151  000000000020800000000000000000000000000000000000000000000000000000000000000000000000000238900000000000000000000000000   060320                                                                                             000010
102473318220001190000009000910152974185058                           0000001