02RETORNO01COBRANCA       00000000000004551915ASSOCIACAO PAULISTA DE CIRURGI237BRADESCO       0503200160000001467                                                                                                                                                                                                                                                                          050320         000001
102473318220001190000009000910152974148081                           0000001480812          00000000000000090605032087236     0000000000290000001P301019000000000238923704151  000000000020800000000000000000000000000000000000000000000000000000000000000000000000000238900000000000000000000000000   050320                                                                                             000002
102473318220001190000009000910152974606476                           0000006064766          00000000000000090605032087236     0000000000290000001P280220000000000238923704151  000000000020800000000000000000000000000000000000000000000000000000000000000000000000000238900000000000000000000000000   050320                                                                                             000003
102473318220001190000009000910152974533843                           0000005338438          00000000000000090605032087236     0000000000290000001P280120000000000023823704151  000000000020800000000000000000000000000000000000000000000000000000000000000000000000000023800000000000000000000000000   050320                                                                                             000004
102473318220001190000009000910152974407845                           0000004078456          00000000000000090605032087236     0000000000290000001P231219000000000238923704151  000000000020800000000000000000000000000000000000000000000000000000000000000000000000000238900000000000000000000000000   050320                                                                                             000005
10247331822000119000000900091015297451