02RETORNO01COBRANCA       00000000000004551915ASSOCIACAO PAULISTA DE CIRURGI237BRADESCO       1703200160000001467                                                                                                                                                                                                                                                                          170320         000001
102473318220001190000009000910152974177830                           0000001778301          00000000000000090617032087236     0000000000290000001P281119000000000238923704151  000000000020800000000000000000000000000000000000000000000000000000000000000000000000000238900000000000000000000000000   170320                                                                                             000002
102473318220001190000009000910152974401946                           0000004019460          00000000000000090617032087236     0000000000290000001P231219000000000238923704151  000000000020800000000000000000000000000000000000000000000000000000000000000000000000000238900000000000000000000000000   170320                                                                                             000003
102473318220001190000009000910152974513584                           0000005135847          00000000000000090617032087236     0000000000290000001P280120000000000238923704151  000000000020800000000000000000000000000000000000000000000000000000000000000000000000000238900000000000000000000000000   170320                                                                                             000004
102473318220001190000009000910152974606476                           0000006064766          00000000000000090617032087236     0000000000290000001P280220000000000238923704151  000000000020800000000000000000000000000000000000000000000000000000000000000000000000000238900000000000000000000000000   170320                                                                                             000005
102473318220001190000009000910152974533843                           0000005338438          00000000000000090617032087236     0000000000290000001P280120000000000023823704151  000000000020800000000000000000000000000000000000000000000000000000000000000000000000000023800000000000000000000000000   170320                                                                                             000006
102473318220001190000009000910152974154376                           0000001543760          00000000000000090617032087236     0000000000290000001P301019000000000238923704151  000000000020800000000000000000000000000000000000000000000000000000000000000000000000000238900000000000000000000000000   170320                                                                                             000007
102473318220001190000009000910152974183760                           0000001837606          00000000000000090617032087236     0000000000290000001P281119000000000238923704151  000000000020800000000000000000000000000000000000000000000000000000000000000000000000000238900000000000000000000000000   170320                                                                                             000008
102473318220001190000009000910152974407845                           0000004078456          00000000000000090617032087236     0000000000290000001P231219000000000238923704151  000000000020800000000000000000000000000000000000000000000000000000000000000000000000000238900000000000000000000000000   170320                                                                                             000009
102473318220001190000009000910152974519815                           0000005198157          00000000000000090617032087236     0000000000290000001P280120000000000238923704151  000000000020800000000000000000000000000000000000000000000000000000000000000000000000000238900000000000000000000000000   170320                                                                                             000010
102473318220001190000009000910152974618444                           0000006184446          00000000000000090617032087236     0000000000290000001P280220000000000238923704151  000000000020800000000000000000000000000000000000000000000000000000000000000000000000000238900000000000000000000000000   170320                                                                                             000011
102473318220001190000009000910152974155741                           0000001557410          00000000000000090617032087236     0000000000290000001P301019000000000238923704151  000000000020800000000000000000000000000000000000000000000000000000000000000000000000000238900000000000000000000000000   170320                                                                                             000012
102473318220001190000009000910152974185058                           0000001850588          00000000000000090617032087236     0000000000290000001P281119000000000238923704151  000000000020800000000000000000000000000000000000000000000000000000000000000000000000000238900000000000000000000000000   170320                                                                                             000013
102473318220001190000009000910152974409134                           0000004091341          00000000000000090617032087236     0000000000290000001P231219000000000238923704151  000000000020800000000000000000000000000000000000000000000000000000000000000000000000000238900000000000000000000000000   170320                                                                                             000014
102473318220001190000009000910152974521125                           0000005211253          00000000000000090617032087236     0000000000290000001P280120000000000238923704151  000000000020800000000000000000000000000000000000000000000000000000000000000000000000000238900000000000000000000000000   170320                                                                                             000015
102473318220001190000009000910152974621015                           0000006210150          00000000000000090617032087236     0000000000290000001P280220000000000238923704151  000000000020800000000000000000000000000000000000000000000000000000000000000000000000000238900000000000000000000000000   170320                                                                                             000016
102473318220001190000009000910152974156007                           0000001560076          00000000000000090617032087236     0000000000290000001P301019000000000238923704151  000000000020800000000000000000000000000000000000000000000000000000000000000000000000000238900000000000000000000000000   170320                                                                                             000017
1024733182200011900000090009101529749784                             0000000097840          00000000000000090617032087236     0000000000290000001P310819000000000238923704151  000000000020800000000000000000000000000000000000000000000000000000000000000000000000000238900000000000000000000000000   170320                                                                                             000018
102473318220001190000009000910152974181191                           0000001811912          00000000000000090617032087236     0000000000290000001P281119000000000238923704151  000000000020800000000000000000000000000000000000000000000000000000000000000000000000000238900000000000000000000000000   170320                                                                                             000019
102473318220001190000009000910152974143840                           0000001438401          00000000000000090617032087236     0000000000290000001P301019000000000238923704151  000000000020800000000000000000000000000000000000000000000000000000000000000000000000000238900000000000000000000000000   170320                                                                                             000020
9201237                                                                                          0000000000000000000000000000000000000000000000000000000