02RETORNO01COBRANCA       00000000000004551915ASSOCIACAO PAULISTA DE CIRURGI237BRADESCO       0503200160000001467                                                                                                                                                                                                                                                                          050320         000001
102473318220001190000009000910152974533843                           0000005338438          00000000000000090605032087236     0000000000290000001P280120000000000023823704151  000000000020800000000000000000000000000000000000000000000000000000000000000000000000000023800000000000000000000000000   050320                                                                                             000002
102473318220001190000009000910152974519815                           0000005198157          00000000000000090605032087236     0000000000290000001P280120000000000238923704151  000000000020800000000000000000000000000000000