02RETORNO01COBRANCA       00000000000004551915ASSOCIACAO PAULISTA DE CIRURGI237BRADESCO       0403200160000001467                                                                                                                                                                                                                                                                          040320         000001
102473318220001190000009000910152974148081                           0000001480812          00000000000000090604032087236     0000000000290000001P301019000000000238923704151  000000000020800000000000000000000000000000000000000000000000000000000000000000000000000238900000000000000000000000000   040320                                                                                             000002
102473318220001190000009000910152974407845                           0000004078456          00000000000000090604032087236     0000000000290000001P231219000000000238923704151  000000000020800000000000000000000000000000000000000000000000000000000000000000000000000238900000000000000000000000000   040320                                                                                             000003
102473318220001190000009000910152974621015                           0000006210150          00000000000000090604032087236     0000000000290000001P280220000000000238923704151  000000000020800000000000000000000000000000000000000000000000000000000000000000000000000238900000000000000000000000000   040320                                                                                             000004
102473318220001190000009000910152974409134                           0000004091341          00000000000000090604032087236     0000000000290000001P231219000000000238923704151  000000000020800000000000000000000000000000000000000000000000000000000000000000000000000238900000000000000000000000000   040320                                                                                             000005
102473318220001190000009000910152974521125                           0000005211253          00000000000000090604032087236     0000000000290000001P280120000000000238923704151  000000000020800000000000000000000000000000000000000000000000000000000000000000000000000238900000000000000000000000000   040320                                                                                             000006
102473318220001190000009000910152974151701                           0000001517010          00000000000000090604032087236     0000000000290000001P301019000000000238923704151  000000000020800000000000000000000000000000000000000000000000000000000000000000000000000238900000000000000000000000000   040320                                                                                             000007
1024733182200011900000090009101529749784                             0000000097840          00000000000000090604032087236     0000000000290000001P300719000000000145923704151  00000000002080000000000000000000000000000000000000000000000000000000000000000000000