02RETORNO01COBRANCA       00000000000004551915ASSOCIACAO PAULISTA DE CIRURGI237BRADESCO       1303200160000001467                                                                                                                                                                                                                                                                          130320         000001
102473318220001190000009000910152974177830                           0000001778301          00000000000000090613032087236     0000000000290000001P281119000000000238923704151  000000000020800000000000000000000000000000000000000000000000000000000000000000000000000238900000000000000000000000000   130320                                                                                             000002
102473318220001190000009000910152974401946                           0000004019460          00000000000000090613032087236     0000000000290000001P231219000000000238923704151  000000000020800000000000000000000000000000000