02RETORNO01COBRANCA       00000000000004551915ASSOCIACAO PAULISTA DE CIRURGI237BRADESCO       0603200160000001467                                                                                                                                                                                                                                                                          060320         000001
1024733182200011900000090009101529749586                             0000000095860          00000000000000090606032087236     0000000000290000001P300719000000000145923704151  000000000020800000000000000000000000000000000000000000000000000000000000000000000000000145900000000000000000000000000   060320                                                                                             000002
102473318220001190000009000910152974187196                           0000001871966          00000000000000090606032087236     0000000000290000001P281119000000000238923704151  000000000020800000000000000000000000000000000