02RETORNO01COBRANCA       00000000000004551915ASSOCIACAO PAULISTA DE CIRURGI237BRADESCO       1003200160000001467                                                                                                                                                                                                                                                                          100320         000001
102473318220001190000009000910152974522584                           0000005225846          00000000000000090610032087236     0000000000290000001P280120000000000238923704151  000000000020800000000000000000000000000000000000000000000000000000000000000000000000000238900000000000000000000000000   100320                                                                                             000002
102473318220001190000009000910152974622580                           0000006225806          00000000000000090610032087236     0000000000290000001P280220000000000238923704151  000000000020800000000000000000000000000000000000000000000000000000000000000000000000000238900000000000000000000000000   100320                                                                                             000003
102473318220001190000009000910152974520295                           0000005202950          00000000000000090610032087236     0000000000290000001P280120000000000238923704151  000000000020800000000000000000000000000000000000000000000000000000000000000000000000000238900000000000000000000000000   100320                                                                                             000004
102473318220001190000009000910152974619382                           0000006193825          00000000000000090610032087236     0000000000290000001P280220000000000238923704151  000000000020800000000000000000000000000000000000000000000000000000000000000000000000000238900000000000000000000000000   100320                                                                                             000005
102473318220001190000009000910152974521510                           0000005215103          00000000000000090610032087236     0000000000290000001P280120000000000238923704151  000000000020800000000000000000000000000000000000000000000000000000000000000000000000000238900000000000000000000000000   100320                                                                                             000006
102473318220001190000009000910152974621519                           0000006215197          00000000000000090610032087236     0000000000290000001P280220000000000238923704151  000000000020800000000000000000000000000000000000000000000000000000000000000000000000000238900000000000000000000000000   100320                                                                                             000007
102473318220001190000009000910152974507324                           0000005073240          00000000000000090610032087236     0000000000290000001P280120000000000238923704151  000000000020800000000000000000000000000000000000000000000000000000000000000000000000000238900000000000000000000000000   100320                                                                                             000008
102473318220001190000009000910152974508422                           0000005084225          00000000000000090610032087236     0000000000290000001P280120000000000238923704151  000000000020800000000000000000000000000000000000000000000000000000000000000000000000000238900000000000000000000000000   100320                                                                                             000009
102473318220001190000009000910152974508898                           0000005088980          00000000000000090610032087236     0000000000290000001P280120000000000238923704151  000000000020800000000000000000000000000000000000000000000000000000000000000000000000000238900000000000000000000000000   100320                                                                                             000010
102473318220001190000009000910152974505601                           0000005056014          00000000000000090610032087236     0000000000290000001P280120000000000238923704151  000000000020800000000000000000000000000000000000000000000000000000000000000000000000000238900000000000000000000000000   100320                                                                                             000011
102473318220001190000009000910152974503661                           0000005036611          00000000000000090610032087236     0000000000290000001P280120000000000179523704151  000000000020800000000000000000000000000000000000000000000000000000000000000000000000000179500000000000000000000000000   100320                                                                                             000012
102473318220001190000009000910152974505806                           0000005058063          00000000000000090610032087236     0000000000290000001P280120000000000238923704151  000000000020800000000000000000000000000000000000000000000000000000000000000000000000000238900000000000000000000000000   100320                                                                                             000013
102473318220001190000009000910152974504638                           0000005046380          00000000000000090610032087236     0000000000290000001P280120000000000179523704151  000000000020800000000000000000000000000000000000000000000000000000000000000000000000000179500000000000000000000000000   100320                                                                                             000014
102473318220001190000009000910152974508850                           0000005088504          00000000000000090610032087236     0000000000290000001P280120000000000238923704151  000000000020800000000000000000000000000000000000000000000000000000000000000000000000000238900000000000000000000000000   100320                                                                                             000015
102473318220001190000009000910152974402873                           0000004028730          00000000000000090610032087236     0000000000290000001P231219000000000238923704151  000000000020800000000000000000000000000000000000000000000000000000000000000000000000000238900000000000000000000000000   100320                                                                                             000016
102473318220001190000009000910152974514620                           0000005146203          00000000000000090610032087236     0000000000290000001P280120000000000238923704151  000000000020800000000000000000000000000000000000000000000000000000000000000000000000000238900000000000000000000000000   100320                                                                                             000017
102473318220001190000009000910152974514622                           0000005146227          00000000000000090610032087236     0000000000290000001P280120000000000238923704151  000000000020800000000000000000000000000000000000000000000000000000000000000000000000000238900000000000000000000000000   100320                                                                                             000018
102473318220001190000009000910152974513241                           0000005132418          00000000000000090610032087236     0000000000290000001P280120000000000238923704151  000000000020800000000000000000000000000000000000000000000000000000000000000000000000000238900000000000000000000000000   100320                                                                                             000019
102473318220001190000009000910152974510028                           0000005100280          00000000000000090610032087236     0000000000290000001P280120000000000238923704151  000000000020800000000000000000000000000000000000000000000000000000000000000000000000000238900000000000000000000000000   100320                                                                                             000020
102473318220001190000009000910152974505748                           0000005057480          00000000000000090610032087236     0000000000290000001P280120000000000238923704151  000000000020800000000000000000000000000000000000000000000000000000000000000000000000000238900000000000000000000000000   100320                                                                                             000021
102473318220001190000009000910152974515204                           0000005152048          00000000000000090610032087236     0000000000290000001P280120000000000238923704151  000000000020800000000000000000000000000000000000000000000000000000000000000000000000000238900000000000000000000000000   100320                                                                                             000022
102473318220001190000009000910152974506814                           0000005068140          00000000000000090610032087236     0000000000290000001P280120000000000238923704151  000000000020800000000000000000000000000000000000000000000000000000000000000000000000000238900000000000000000000000000   100320                                                                                             000023
102473318220001190000009000910152974517366                           0000005173665          00000000000000090610032087236     0000000000290000001P280120000000000238923704151  000000000020800000000000000000000000000000000000000000000000000000000000000000000000000238900000000000000000000000000   100320                                                                                             000024
102473318220001190000009000910152974391545                           0000003915458          00000000000000090610032087236     0000000000290000001P231219000000000179523704151  000000000020800000000000000000000000000000000000000000000000000000000000000000000000000179500000000000000000000000000   100320                                                                                             000025
102473318220001190000009000910152974503557                           0000005035570          00000000000000090610032087236     0000000000290000001P280120000000000179523704151  000000000020800000000000000000000000000000000000000000000000000000000000000000000000000179500000000000000000000000000   100320                                                                                             000026
102473318220001190000009000910152974515383                           0000005153833          00000000000000090610032087236     0000000000290000001P280120000000000238923704151  000000000020800000000000000000000000000000000000000000000000000000000000000000000000000238900000000000000000000000000   100320                                                                                             000027
102473318220001190000009000910152974518202                           0000005182021          00000000000000090610032087236     0000000000290000001P280120000000000238923704151  000000000020800000000000000000000000000000000000000000000000000000000000000000000000000238900000000000000000000000000   100320                                                                                             000028
102473318220001190000009000910152974517238                           0000005172386          00000000000000090610032087236     0000000000290000001P280120000000000238923704151  000000000020800000000000000000000000000000000000000000000000000000000000000000000000000238900000000000000000000000000   100320                                                                                             000029
102473318220001190000009000910152974511534                           0000005115344          00000000000000090610032087236     0000000000290000001P280120000000000238923704151  000000000020800000000000000000000000000000000000000000000000000000000000000000000000000238900000000000000000000000000   100320                                                                                             000030
102473318220001190000009000910152974521636                           0000005216366          00000000000000090610032087236     0000000000290000001P280120000000000238923704151  000000000020800000000000000000000000000000000000000000000000000000000000000000000000000238900000000000000000000000000   100320                                                                                             000031
102473318220001190000009000910152974519110                           0000005191108          00000000000000090610032087236     0000000000290000001P280120000000000238923704151  000000000020800000000000000000000000000000000000000000000000000000000000000000000000000238900000000000000000000000000   100320                                                                                             000032
102473318220001190000009000910152974521129                           0000005211290          00000000000000090610032087236     0000000000290000001P280120000000000238923704151  000000000020800000000000000000000000000000000000000000000000000000000000000000000000000238900000000000000000000000000   100320                                                                                             000033
102473318220001190000009000910152974176596                           0000001765969          00000000000000090610032087236     0000000000290000001P281119000000000238923704151  000000000020800000000000000000000000000000000000000000000000000000000000000000000000000238900000000000000000000000000   100320                                                                                             000034
102473318220001190000009000910152974400712                           0000004007124          00000000000000090610032087236     0000000000290000001P231219000000000238923704151  000000000020800000000000000000000000000000000000000000000000000000000000000000000000000238900000000000000000000000000   100320                                                                                             000035
102473318220001190000009000910152974512085                           0000005120850          00000000000000090610032087236     0000000000290000001P280120000000000238923704151  000000000020800000000000000000000000000000000000000000000000000000000000000000000000000238900000000000000000000000000   100320                                                                                             000036
102473318220001190000009000910152974517367                           0000005173677          00000000000000090610032087236     0000000000290000001P280120000000000238923704151  000000000020800000000000000000000000000000000000000000000000000000000000000000000000000238900000000000000000000000000   100320                                                                                             000037
102473318220001190000009000910152974515628                           0000005156287          00000000000000090610032087236     0000000000290000001P280120000000000238923704151  000000000020800000000000000000000000000000000000000000000000000000000000000000000000000238900000000000000000000000000   100320                                                                                             000038
102473318220001190000009000910152974517371                           0000005173717          00000000000000090610032087236     0000000000290000001P280120000000000238923704151  000000000020800000000000000000000000000000000000000000000000000000000000000000000000000238900000000000000000000000000   100320                                                                                             000039
102473318220001190000009000910152974513060                           0000005130608          00000000000000090610032087236     0000000000290000001P280120000000000238923704151  000000000020800000000000000000000000000000000000000000000000000000000000000000000000000238900000000000000000000000000   100320                                                                                             000040
102473318220001190000009000910152974514621                           0000005146215          00000000000000090610032087236     0000000000290000001P280120000000000238923704151  000000000020800000000000000000000000000000000000000000000000000000000000000000000000000238900000000000000000000000000   100320                                                                                             000041
102473318220001190000009000910152974518127                           0000005181272          00000000000000090610032087236     0000000000290000001P280120000000000238923704151  000000000020800000000000000000000000000000000000000000000000000000000000000000000000000238900000000000000000000000000   100320                                                                                             000042
102473318220001190000009000910152974506835                           0000005068353          00000000000000090610032087236     0000000000290000001P280120000000000238923704151  000000000020800000000000000000000000000000000000000000000000000000000000000000000000000238900000000000000000000000000   100320                                                                                             000043
102473318220001190000009000910152974511579                           0000005115790          00000000000000090610032087236     0000000000290000001P280120000000000238923704151  000000000020800000000000000000000000000000000000000000000000000000000000000000000000000238900000000000000000000000000   100320                                                                                             000044
102473318220001190000009000910152974509447                           0000005094475          00000000000000090610032087236     0000000000290000001P280120000000000238923704151  000000000020800000000000000000000000000000000000000000000000000000000000000000000000000238900000000000000000000000000   100320                                                                                             000045
102473318220001190000009000910152974515874                           0000005158744          00000000000000090610032087236     0000000000290000001P280120000000000238923704151  000000000020800000000000000000000000000000000000000000000000000000000000000000000000000238900000000000000000000000000   100320                                                                                             000046
102473318220001190000009000910152974522743                           0000005227430          00000000000000090610032087236     0000000000290000001P280120000000000238923704151  000000000020800000000000000000000000000000000000000000000000000000000000000000000000000238900000000000000000000000000   100320                                                                                             000047
102473318220001190000009000910152974522319                           0000005223199          00000000000000090610032087236     0000000000290000001P280120000000000238923704151  000000000020800000000000000000000000000000000000000000000000000000000000000000000000000238900000000000000000000000000   100320                                                                                             000048
102473318220001190000009000910152974518550                           0000005185502          00000000000000090610032087236     0000000000290000001P280120000000000238923704151  000000000020800000000000000000000000000000000000000000000000000000000000000000000000000238900000000000000000000000000   100320                                                                                             000049
102473318220001190000009000910152974508469                           0000005084690          00000000000000090610032087236     0000000000290000001P280120000000000238923704151  000000000020800000000000000000000000000000000000000000000000000000000000000000000000000238900000000000000000000000000   100320                                                                                             000050
102473318220001190000009000910152974512609                           0000005126090          00000000000000090610032087236     0000000000290000001P280120000000000238923704151  000000000020800000000000000000000000000000000000000000000000000000000000000000000000000238900000000000000000000000000   100320                                                                                             000051
102473318220001190000009000910152974153623                           0000001536233          00000000000000090610032087236     0000000000290000001P301019000000000238923704151  000000000020800000000000000000000000000000000000000000000000000000000000000000000000000238900000000000000000000000000   100320                                                                                             000052
102473318220001190000009000910152974183049                           0000001830490          00000000000000090610032087236     0000000000290000001P281119000000000238923704151  000000000020800000000000000000000000000000000000000000000000000000000000000000000000000238900000000000000000000000000   100320                                                                                             000053
102473318220001190000009000910152974519113                           0000005191133          00000000000000090610032087236     0000000000290000001P280120000000000238923704151  000000000020800000000000000000000000000000000000000000000000000000000000000000000000000238900000000000000000000000000   100320                                                                                             000054
102473318220001190000009000910152974392373                           0000003923736          00000000000000090610032087236     0000000000290000001P231219000000000179523704151  000000000020800000000000000000000000000000000000000000000000000000000000000000000000000179500000000000000000000000000   100320                                                                                             000055
102473318220001190000009000910152974503947                           0000005039470          00000000000000090610032087236     0000000000290000001P280120000000000179523704151  000000000020800000000000000000000000000000000000000000000000000000000000000000000000000179500000000000000000000000000   100320                                                                                             000056
102473318220001190000009000910152974522237                           0000005222377          00000000000000090610032087236     0000000000290000001P280120000000000238923704151  000000000020800000000000000000000000000000000000000000000000000000000000000000000000000238900000000000000000000000000   100320                                                                                             000057
102473318220001190000009000910152974522582                           0000005225822          00000000000000090610032087236     0000000000290000001P280120000000000238923704151  000000000020800000000000000000000000000000000000000000000000000000000000000000000000000238900000000000000000000000000   100320                                                                                             000058
102473318220001190000009000910152974514092                           0000005140923          00000000000000090610032087236     0000000000290000001P280120000000000238923704151  000000000020800000000000000000000000000000000000000000000000000000000000000000000000000238900000000000000000000000000   100320                                                                                             000059
102473318220001190000009000910152974511485                           0000005114850          00000000000000090610032087236     0000000000290000001P280120000000000238923704151  000000000020800000000000000000000000000000000000000000000000000000000000000000000000000238900000000000000000000000000   100320                                                                                             000060
102473318220001190000009000910152974514093                           0000005140935          00000000000000090610032087236     0000000000290000001P280120000000000238923704151  000000000020800000000000000000000000000000000000000000000000000000000000000000000000000238900000000000000000000000000   100320                                                                                             000061
102473318220001190000009000910152974510476                           0000005104760          00000000000000090610032087236     0000000000290000001P280120000000000238923704151  000000000020800000000000000000000000000000000000000000000000000000000000000000000000000238900000000000000000000000000   100320                                                                                             000062
102473318220001190000009000910152974510311                           0000005103118          00000000000000090610032087236     0000000000290000001P280120000000000238923704151  000000000020800000000000000000000000000000000000000000000000000000000000000000000000000238900000000000000000000000000   100320                                                                                             000063
102473318220001190000009000910152974507928                           0000005079287          00000000000000090610032087236     0000000000290000001P280120000000000238923704151  000000000020800000000000000000000000000000000000000000000000000000000000000000000000000238900000000000000000000000000   100320                                                                                             000064
102473318220001190000009000910152974518128                           0000005181284          00000000000000090610032087236     0000000000290000001P280120000000000238923704151  000000000020800000000000000000000000000000000000000000000000000000000000000000000000000238900000000000000000000000000   100320                                                                                             000065
102473318220001190000009000910152974506018                           0000005060187          00000000000000090610032087236     0000000000290000001P280120000000000238923704151  000000000020800000000000000000000000000000000000000000000000000000000000000000000000000238900000000000000000000000000   100320                                                                                             000066
102473318220001190000009000910152974506309                           0000005063098          00000000000000090610032087236     0000000000290000001P280120000000000238923704151  000000000020800000000000000000000000000000000000000000000000000000000000000000000000000238900000000000000000000000000   100320                                                                                             000067
102473318220001190000009000910152974515941                           0000005159416          00000000000000090610032087236     0000000000290000001P280120000000000238923704151  000000000020800000000000000000000000000000000000000000000000000000000000000000000000000238900000000000000000000000000   100320                                                                                             000068
102473318220001190000009000910152974511623                           0000005116231          00000000000000090610032087236     0000000000290000001P280120000000000238923704151  000000000020800000000000000000000000000000000000000000000000000000000000000000000000000238900000000000000000000000000   100320                                                                                             000069
102473318220001190000009000910152974515071                           0000005150719          00000000000000090610032087236     0000000000290000001P280120000000000238923704151  000000000020800000000000000000000000000000000000000000000000000000000000000000000000000238900000000000000000000000000   100320                                                                                             000070
102473318220001190000009000910152974514112                           0000005141126          00000000000000090610032087236     0000000000290000001P280120000000000238923704151  000000000020800000000000000000000000000000000000000000000000000000000000000000000000000238900000000000000000000000000   100320                                                                                             000071
102473318220001190000009000910152974518922                           0000005189223          00000000000000090610032087236     0000000000290000001P280120000000000238923704151  000000000020800000000000000000000000000000000000000000000000000000000000000000000000000238900000000000000000000000000   100320                                                                                             000072
102473318220001190000009000910152974507814                           0000005078149          00000000000000090610032087236     0000000000290000001P280120000000000238923704151  000000000020800000000000000000000000000000000000000000000000000000000000000000000000000238900000000000000000000000000   100320                                                                                             000073
102473318220001190000009000910152974512646                           0000005126468          00000000000000090610032087236     0000000000290000001P280120000000000238923704151  000000000020800000000000000000000000000000000000000000000000000000000000000000000000000238900000000000000000000000000   100320                                                                                             000074
102473318220001190000009000910152974514372                           0000005143721          00000000000000090610032087236     0000000000290000001P280120000000000238923704151  000000000020800000000000000000000000000000000000000000000000000000000000000000000000000238900000000000000000000000000   100320                                                                                             000075
102473318220001190000009000910152974518764                           0000005187640          00000000000000090610032087236     0000000000290000001P280120000000000238923704151  000000000020800000000000000000000000000000000000000000000000000000000000000000000000000238900000000000000000000000000   100320                                                                                             000076
102473318220001190000009000910152974522134                           0000005221341          00000000000000090610032087236     0000000000290000001P280120000000000238923704151  000000000020800000000000000000000000000000000000000000000000000000000000000000000000000238900000000000000000000000000   100320                                                                                             000077
102473318220001190000009000910152974523701                           0000005237012          00000000000000090610032087236     0000000000290000001P280120000000000238923704151  000000000020800000000000000000000000000000000000000000000000000000000000000000000000000238900000000000000000000000000   100320                                                                                             000078
102473318220001190000009000910152974518231                           0000005182312          00000000000000090610032087236     0000000000290000001P280120000000000238923704151  000000000020800000000000000000000000000000000000000000000000000000000000000000000000000238900000000000000000000000000   100320                                                                                             000079
102473318220001190000009000910152974513208                           0000005132087          00000000000000090610032087236     0000000000290000001P280120000000000238923704151  000000000020800000000000000000000000000000000000000000000000000000000000000000000000000238900000000000000000000000000   100320                                                                                             000080
102473318220001190000009000910152974517236                           0000005172362          00000000000000090610032087236     0000000000290000001P280120000000000238923704151  000000000020800000000000000000000000000000000000000000000000000000000000000000000000000238900000000000000000000000000   100320                                                                                             000081
102473318220001190000009000910152974522589                           0000005225890          00000000000000090610032087236     0000000000290000001P280120000000000238923704151  000000000020800000000000000000000000000000000000000000000000000000000000000000000000000238900000000000000000000000000   100320                                                                                             000082
102473318220001190000009000910152974521615                           0000005216152          00000000000000090610032087236     0000000000290000001P280120000000000238923704151  000000000020800000000000000000000000000000000000000000000000000000000000000000000000000238900000000000000000000000000   100320                                                                                             000083
102473318220001190000009000910152974514943                           0000005149430          00000000000000090610032087236     0000000000290000001P280120000000000238923704151  000000000020800000000000000000000000000000000000000000000000000000000000000000000000000238900000000000000000000000000   100320                                                                                             000084
102473318220001190000009000910152974506118                           0000005061187          00000000000000090610032087236     0000000000290000001P280120000000000238923704151  000000000020800000000000000000000000000000000000000000000000000000000000000000000000000238900000000000000000000000000   100320                                                                                             000085
102473318220001190000009000910152974510649                           0000005106490          00000000000000090610032087236     0000000000290000001P280120000000000238923704151  000000000020800000000000000000000000000000000000000000000000000000000000000000000000000238900000000000000000000000000   100320                                                                                             000086
102473318220001190000009000910152974511194                           0000005111940          00000000000000090610032087236     0000000000290000001P280120000000000238923704151  000000000020800000000000000000000000000000000000000000000000000000000000000000000000000238900000000000000000000000000   100320                                                                                             000087
102473318220001190000009000910152974511321                           0000005113218          00000000000000090610032087236     0000000000290000001P280120000000000238923704151  000000000020800000000000000000000000000000000000000000000000000000000000000000000000000238900000000000000000000000000   100320                                                                                             000088
102473318220001190000009000910152974503658                           0000005036580          00000000000000090610032087236     0000000000290000001P280120000000000179523704151  000000000020800000000000000000000000000000000000000000000000000000000000000000000000000179500000000000000000000000000   100320                                                                                             000089
102473318220001190000009000910152974522581                           0000005225810          00000000000000090610032087236     0000000000290000001P280120000000000238923704151  000000000020800000000000000000000000000000000000000000000000000000000000000000000000000238900000000000000000000000000   100320                                                                                             000090
102473318220001190000009000910152974507295                           0000005072958          00000000000000090610032087236     0000000000290000001P280120000000000238923704151  000000000020800000000000000000000000000000000000000000000000000000000000000000000000000238900000000000000000000000000   100320                                                                                             000091
102473318220001190000009000910152974510510                           0000005105106          00000000000000090610032087236     0000000000290000001P280120000000000238923704151  000000000020800000000000000000000000000000000000000000000000000000000000000000000000000238900000000000000000000000000   100320                                                                                             000092
102473318220001190000009000910152974511753                           0000005117534          00000000000000090610032087236     0000000000290000001P280120000000000238923704151  000000000020800000000000000000000000000000000000000000000000000000000000000000000000000238900000000000000000000000000   100320                                                                                             000093
102473318220001190000009000910152974508795                           0000005087957          00000000000000090610032087236     0000000000290000001P280120000000000238923704151  000000000020800000000000000000000000000000000000000000000000000000000000000000000000000238900000000000000000000000000   100320                                                                                             000094
102473318220001190000009000910152974523901                           0000005239012          00000000000000090610032087236     0000000000290000001P280120000000000238923704151  000000000020800000000000000000000000000000000000000000000000000000000000000000000000000238900000000000000000000000000   100320                                                                                             000095
102473318220001190000009000910152974506704                           0000005067049          00000000000000090610032087236     0000000000290000001P280120000000000238923704151  000000000020800000000000000000000000000000000000000000000000000000000000000000000000000238900000000000000000000000000   100320                                                                                             000096
102473318220001190000009000910152974514278                           0000005142780          00000000000000090610032087236     0000000000290000001P280120000000000238923704151  000000000020800000000000000000000000000000000000000000000000000000000000000000000000000238900000000000000000000000000   100320                                                                                             000097
102473318220001190000009000910152974512399                           0000005123990          00000000000000090610032087236     0000000000290000001P280120000000000238923704151  000000000020800000000000000000000000000000000000000000000000000000000000000000000000000238900000000000000000000000000   100320                                                                                             000098
102473318220001190000009000910152974517578                           0000005175780          00000000000000090610032087236     0000000000290000001P280120000000000238923704151  000000000020800000000000000000000000000000000000000000000000000000000000000000000000000238900000000000000000000000000   100320                                                                                             000099
102473318220001190000009000910152974522583                           0000005225834          00000000000000090610032087236     0000000000290000001P280120000000000238923704151  000000000020800000000000000000000000000000000000000000000000000000000000000000000000000238900000000000000000000000000   100320                                                                                             000100
102473318220001190000009000910152974517775                           0000005177754          00000000000000090610032087236     0000000000290000001P280120000000000238923704151  000000000020800000000000000000000000000000000000000000000000000000000000000000000000000238900000000000000000000000000   100320                                                                                             000101
102473318220001190000009000910152974518637                           0000005186373          00000000000000090610032087236     0000000000290000001P280120000000000238923704151  000000000020800000000000000000000000000000000000000000000000000000000000000000000000000238900000000000000000000000000   100320                                                                                             000102
102473318220001190000009000910152974513535                           0000005135354          00000000000000090610032087236     0000000000290000001P280120000000000238923704151  000000000020800000000000000000000000000000000000000000000000000000000000000000000000000238900000000000000000000000000   100320                                                                                             000103
102473318220001190000009000910152974505979                           0000005059790          00000000000000090610032087236     0000000000290000001P280120000000000238923704151  000000000020800000000000000000000000000000000000000000000000000000000000000000000000000238900000000000000000000000000   100320                                                                                             000104
102473318220001190000009000910152974511016                           0000005110166          00000000000000090610032087236     0000000000290000001P280120000000000238923704151  000000000020800000000000000000000000000000000000000000000000000000000000000000000000000238900000000000000000000000000   100320                                                                                             000105
102473318220001190000009000910152974517537                           0000005175374          00000000000000090610032087236     0000000000290000001P280120000000000238923704151  000000000020800000000000000000000000000000000000000000000000000000000000000000000000000238900000000000000000000000000   100320                                                                                             000106
102473318220001190000009000910152974506206                           0000005062062          00000000000000090610032087236     0000000000290000001P280120000000000238923704151  000000000020800000000000000000000000000000000000000000000000000000000000000000000000000238900000000000000000000000000   100320                                                                                             000107
102473318220001190000009000910152974504568                           0000005045680          00000000000000090610032087236     0000000000290000001P280120000000000179523704151  000000000020800000000000000000000000000000000000000000000000000000000000000000000000000179500000000000000000000000000   100320                                                                                             000108
102473318220001190000009000910152974516583                           0000005165832          00000000000000090610032087236     0000000000290000001P280120000000000238923704151  000000000020800000000000000000000000000000000000000000000000000000000000000000000000000238900000000000000000000000000   100320                                                                                             000109
102473318220001190000009000910152974507501                           0000005075012          00000000000000090610032087236     0000000000290000001P280120000000000238923704151  000000000020800000000000000000000000000000000000000000000000000000000000000000000000000238900000000000000000000000000   100320                                                                                             000110
102473318220001190000009000910152974520202                           0000005202027          00000000000000090610032087236     0000000000290000001P280120000000000238923704151  000000000020800000000000000000000000000000000000000000000000000000000000000000000000000238900000000000000000000000000   100320                                                                                             000111
102473318220001190000009000910152974517700                           0000005177009          00000000000000090610032087236     0000000000290000001P280120000000000238923704151  000000000020800000000000000000000000000000000000000000000000000000000000000000000000000238900000000000000000000000000   100320                                                                                             000112
9201237                         