02RETORNO01COBRANCA       00000000000004551915ASSOCIACAO PAULISTA DE CIRURGI237BRADESCO       1703200160000001467                                                                                                                                                                                                                                                                          170320         000001
102473318220001190000009000910152974401053                           0000004010539          00000000000000090617032087236     0000000000290000001P231219000000000238923704151  000000000020800000000000000000000000000000000000000000000000000000000000000000000000000238900000000000000000000000000   170320                                                                                             000002
102473318220001190000009000910152974512504                           0000005125040          00000000000000090617032087236     0000000000290000001P280120000000000238923704151  000000000020800000000000000000000000000000000