02RETORNO01COBRANCA       00000000000004551915ASSOCIACAO PAULISTA DE CIRURGI237BRADESCO       1703200160000001467                                                                                                                                                                                                                                                                          170320         000001
102473318220001190000009000910152974401053                           0000004010539          00000000000000090617032087236     0000000000290000001P231219000000000238923704151  000000000020800000000000000000000000000000000000000000000000000000000000000000000000000238900000000000000000000000000   170320                                                                                             000002
102473318220001190000009000910152974512504                           0000005125040          00000000000000090617032087236     0000000000290000001P280120000000000238923704151  000000000020800000000000000000000000000000000000000000000000000000000000000000000000000238900000000000000000000000000   170320                                                                                             000003
102473318220001190000009000910152974604679                           0000006046790          00000000000000090617032087236     0000000000290000001P280220000000000238923704151  000000000020800000000000000000000000000000000000000000000000000000000000000000000000000238900000000000000000000000000   170320                                                                                             000004
102473318220001190000009000910152974409209                           0000004092098          00000000000000090617032087236     0000000000290000001P231219000000000238923704151  000000000020800000000000000000000000000000000000000000000000000000000000000000000000000238900000000000000000000000000   170320                                                                                             000005
102473318220001190000009000910152974521199                           0000005211990          00000000000000090617032087236     0000000000290000001P280120000000000238923704151  000000000020800000000000000000000000000000000000000000000000000000000000000000000000000238900000000000000000000000000   170320                                                                                             000006
102473318220001190000009000910152974621165                           0000006211654          00000000000000090617032087236     0000000000290000001P280220000000000238923704151  000000000020800000000000000000000000000000000000000000000000000000000000000000000000000238900000000000000000000000000   170320                                                                                             000007
102473318220001190000009000910152974402310                           0000004023109          00000000000000090617032087236     0000000000290000001P231219000000000238923704151  000000000020800000000000000000000000000000000000000000000000000000000000000000000000000238900000000000000000000000000   170320                                                                                             000008
102473318220001190000009000910152974513993                           0000005139936          00000000000000090617032087236     0000000000290000001P280120000000000238923704151  000000000020800000000000000000000000000000000000000000000000000000000000000000000000000238900000000000000000000000000   170320                                                                                             000009
102473318220001190000009000910152974607210                           0000006072109          00000000000000090617032087236     0000000000290000001P280220000000000238923704151  000000000020800000000000000000000000000000000000000000000000000000000000000000000000000238900000000000000000000000000   170320                                                                                             000010
9201237                                                                     