02RETORNO01COBRANCA       00000000000004551915ASSOCIACAO PAULISTA DE CIRURGI237BRADESCO       1303200160000001467                                                                                                                                                                                                                                                                          130320         000001
102473318220001190000009000910152974512136                           0000005121367          00000000000000090613032087236     0000000000290000001P280120000000000238923704151  000000000020800000000000000000000000000000000000000000000000000000000000000000000000000238900000000000000000000000000   130320                                                                                             000002
102473318220001190000009000910152974522673                           0000005226733          00000000000000090613032087236     0000000000290000001P280120000000000238923704151  000000000020800000000000000000000000000000000000000000000000000000000000000000000000000238900000000000000000000000000   130320                                                                                             000003
102473318220001190000009000910152974519088                           0000005190889          00000000000000090613032087236     0000000000290000001P280120000000000238923704151  000000000020800000000000000000000000000000000000000000000000000000000000000000000000000238900000000000000000000000000   130320                                                                                             000004
102473318220001190000009000910152974521530                           0000005215305          00000000000000090613032087236     0000000000290000001P280120000000000238923704151  000000000020800000000000000000000000000000000000000000000000000000000000000000000000000238900000000000000000000000000   130320                                                                                             000005
102473318220001190000009000910152974520289                           0000005202890          00000000000000090613032087236     0000000000290000001P280120000000000238923704151  000000000020800000000000000000000000000000000000000000000000000000000000000000000000000238900000000000000000000000000   130320                                                                                             000006
102473318220001190000009000910152974517970                           0000005179705          00000000000000090613032087236     0000000000290000001P280120000000000238923704151  000000000020800000000000000000000000000000000000000000000000000000000000000000000000000238900000000000000000000000000   130320                                                                                             000007
102473318220001190000009000910152974521294                           0000005212948          00000000000000090613032087236     0000000000290000001P280120000000000238923704151  000000000020800000000000000000000000000000000000000000000000000000000000000000000000000238900000000000000000000000000   130320                                                                                             000008
102473318220001190000009000910152974508596                           0000005085969          00000000000000090613032087236     0000000000290000001P280120000000000238923704151  000000000020800000000000000000000000000000000000000000000000000000000000000000000000000238900000000000000000000000000   130320                                                                                             000009
102473318220001190000009000910152974518781                           0000005187817          00000000000000090613032087236     0000000000290000001P280120000000000238923704151  000000000020800000000000000000000000000000000000000000000000000000000000000000000000000238900000000000000000000000000   130320                                                                                             000010
102473318220001190000009000910152974504012                           0000005040128          00000000000000090613032087236     0000000000290000001P280120000000000179523704151  000000000020800000000000000000000000000000000000000000000000000000000000000000000000000179500000000000000000000000000   130320                                                                                             000011
102473318220001190000009000910152974513617                           0000005136176          00000000000000090613032087236     0000000000290000001P280120000000000238923704151  000000000020800000000000000000000000000000000000000000000000000000000000000000000000000238900000000000000000000000000   130320                                                                                             000012
102473318220001190000009000910152974156523                           0000001565230          00000000000000090613032087236     0000000000290000001P301019000000000238923704151  000000000020800000000000000000000000000000000000000000000000000000000000000000000000000238900000000000000000000000000   130320                                                                                             000013
102473318220001190000009000910152974185789                           0000001857890          00000000000000090613032087236     0000000000290000001P281119000000000238923704151  000000000020800000000000000000000000000000000000000000000000000000000000000000000000000238900000000000000000000000000   130320                                                                                             000014
102473318220001190000009000910152974409865                           0000004098656          00000000000000090613032087236     0000000000290000001P231219000000000238923704151  000000000020800000000000000000000000000000000000000000000000000000000000000000000000000238900000000000000000000000000   130320                                                                                             000015
102473318220001190000009000910152974521871                           0000005218710          0000000000000009061303