02RETORNO01COBRANCA       00000000000004551915ASSOCIACAO PAULISTA DE CIRURGI237BRADESCO       2403200160000001467                                                                                                                                                                                                                                                                          240320         000001
102473318220001190000009000910152974588074                           0000005880749          00000000000000090624032087236     0000000000290000001P280220000000000179523704151  000000000020800000000000000000000000000000000000000000000000000000000000000000000000000179500000000000000000000000000   240320                                                                                             000002
1024733182200011900000090009101529743386                             0000000033860          00000000000000090624032087236     0000000000290000001P310519000000000020823704151  000000000020800000000000000000000000000000000